{
	"contracts/lottery.sol": {
		"Lottery": {
			"abi": [
				{
					"inputs": [],
					"stateMutability": "nonpayable",
					"type": "constructor"
				},
				{
					"inputs": [],
					"name": "amount",
					"outputs": [
						{
							"internalType": "uint256",
							"name": "",
							"type": "uint256"
						}
					],
					"stateMutability": "view",
					"type": "function"
				},
				{
					"inputs": [],
					"name": "getBalance",
					"outputs": [
						{
							"internalType": "uint256",
							"name": "",
							"type": "uint256"
						}
					],
					"stateMutability": "view",
					"type": "function"
				},
				{
					"inputs": [],
					"name": "greet",
					"outputs": [
						{
							"internalType": "string",
							"name": "",
							"type": "string"
						}
					],
					"stateMutability": "view",
					"type": "function"
				},
				{
					"inputs": [],
					"name": "manager",
					"outputs": [
						{
							"internalType": "address",
							"name": "",
							"type": "address"
						}
					],
					"stateMutability": "view",
					"type": "function"
				},
				{
					"inputs": [],
					"name": "pay",
					"outputs": [],
					"stateMutability": "payable",
					"type": "function"
				},
				{
					"inputs": [],
					"name": "pickWinner",
					"outputs": [],
					"stateMutability": "nonpayable",
					"type": "function"
				},
				{
					"inputs": [
						{
							"internalType": "uint256",
							"name": "",
							"type": "uint256"
						}
					],
					"name": "players",
					"outputs": [
						{
							"internalType": "address payable",
							"name": "",
							"type": "address"
						}
					],
					"stateMutability": "view",
					"type": "function"
				},
				{
					"inputs": [],
					"name": "sender",
					"outputs": [
						{
							"internalType": "address",
							"name": "",
							"type": "address"
						}
					],
					"stateMutability": "view",
					"type": "function"
				},
				{
					"stateMutability": "payable",
					"type": "receive"
				}
			],
			"devdoc": {
				"kind": "dev",
				"methods": {},
				"version": 1
			},
			"evm": {
				"assembly": "    /* \"contracts/lottery.sol\":74:2138  contract Lottery\r... */\n  mstore(0x40, 0x80)\n    /* \"contracts/lottery.sol\":248:283  string public greet = \"Hello World\" */\n  mload(0x40)\n  dup1\n  0x40\n  add\n  0x40\n  mstore\n  dup1\n  0x0b\n  dup2\n  mstore\n  0x20\n  add\n  0x48656c6c6f20576f726c64000000000000000000000000000000000000000000\n  dup2\n  mstore\n  pop\n  0x02\n  swap1\n  dup1\n  mload\n  swap1\n  0x20\n  add\n  swap1\n  tag_1\n  swap3\n  swap2\n  swap1\n  tag_2\n  jump\t// in\ntag_1:\n  pop\n    /* \"contracts/lottery.sol\":492:627  constructor ()\r... */\n  callvalue\n  dup1\n  iszero\n  tag_3\n  jumpi\n  0x00\n  dup1\n  revert\ntag_3:\n  pop\n    /* \"contracts/lottery.sol\":609:619  msg.sender */\n  caller\n    /* \"contracts/lottery.sol\":599:606  manager */\n  0x01\n  0x00\n    /* \"contracts/lottery.sol\":599:619  manager = msg.sender */\n  0x0100\n  exp\n  dup2\n  sload\n  dup2\n  0xffffffffffffffffffffffffffffffffffffffff\n  mul\n  not\n  and\n  swap1\n  dup4\n  0xffffffffffffffffffffffffffffffffffffffff\n  and\n  mul\n  or\n  swap1\n  sstore\n  pop\n    /* \"contracts/lottery.sol\":74:2138  contract Lottery\r... */\n  jump(tag_6)\ntag_2:\n  dup3\n  dup1\n  sload\n  tag_7\n  swap1\n  tag_8\n  jump\t// in\ntag_7:\n  swap1\n  0x00\n  mstore\n  keccak256(0x00, 0x20)\n  swap1\n  0x1f\n  add\n  0x20\n  swap1\n  div\n  dup2\n  add\n  swap3\n  dup3\n  tag_10\n  jumpi\n  0x00\n  dup6\n  sstore\n  jump(tag_9)\ntag_10:\n  dup3\n  0x1f\n  lt\n  tag_11\n  jumpi\n  dup1\n  mload\n  not(0xff)\n  and\n  dup4\n  dup1\n  add\n  or\n  dup6\n  sstore\n  jump(tag_9)\ntag_11:\n  dup3\n  dup1\n  add\n  0x01\n  add\n  dup6\n  sstore\n  dup3\n  iszero\n  tag_9\n  jumpi\n  swap2\n  dup3\n  add\ntag_12:\n  dup3\n  dup2\n  gt\n  iszero\n  tag_13\n  jumpi\n  dup3\n  mload\n  dup3\n  sstore\n  swap2\n  0x20\n  add\n  swap2\n  swap1\n  0x01\n  add\n  swap1\n  jump(tag_12)\ntag_13:\ntag_9:\n  pop\n  swap1\n  pop\n  tag_14\n  swap2\n  swap1\n  tag_15\n  jump\t// in\ntag_14:\n  pop\n  swap1\n  jump\t// out\ntag_15:\ntag_16:\n  dup1\n  dup3\n  gt\n  iszero\n  tag_17\n  jumpi\n  0x00\n  dup2\n  0x00\n  swap1\n  sstore\n  pop\n  0x01\n  add\n  jump(tag_16)\ntag_17:\n  pop\n  swap1\n  jump\t// out\n    /* \"#utility.yul\":7:327   */\ntag_8:\n    /* \"#utility.yul\":51:57   */\n  0x00\n    /* \"#utility.yul\":88:89   */\n  0x02\n    /* \"#utility.yul\":82:86   */\n  dup3\n    /* \"#utility.yul\":78:90   */\n  div\n    /* \"#utility.yul\":68:90   */\n  swap1\n  pop\n    /* \"#utility.yul\":135:136   */\n  0x01\n    /* \"#utility.yul\":129:133   */\n  dup3\n    /* \"#utility.yul\":125:137   */\n  and\n    /* \"#utility.yul\":156:174   */\n  dup1\n    /* \"#utility.yul\":146:227   */\n  tag_20\n  jumpi\n    /* \"#utility.yul\":212:216   */\n  0x7f\n    /* \"#utility.yul\":204:210   */\n  dup3\n    /* \"#utility.yul\":200:217   */\n  and\n    /* \"#utility.yul\":190:217   */\n  swap2\n  pop\n    /* \"#utility.yul\":146:227   */\ntag_20:\n    /* \"#utility.yul\":274:276   */\n  0x20\n    /* \"#utility.yul\":266:272   */\n  dup3\n    /* \"#utility.yul\":263:277   */\n  lt\n    /* \"#utility.yul\":243:261   */\n  dup2\n    /* \"#utility.yul\":240:278   */\n  eq\n    /* \"#utility.yul\":237:321   */\n  iszero\n  tag_21\n  jumpi\n    /* \"#utility.yul\":293:311   */\n  tag_22\n  tag_23\n  jump\t// in\ntag_22:\n    /* \"#utility.yul\":237:321   */\ntag_21:\n    /* \"#utility.yul\":58:327   */\n  pop\n    /* \"#utility.yul\":7:327   */\n  swap2\n  swap1\n  pop\n  jump\t// out\n    /* \"#utility.yul\":333:513   */\ntag_23:\n    /* \"#utility.yul\":381:458   */\n  0x4e487b7100000000000000000000000000000000000000000000000000000000\n    /* \"#utility.yul\":378:379   */\n  0x00\n    /* \"#utility.yul\":371:459   */\n  mstore\n    /* \"#utility.yul\":478:482   */\n  0x22\n    /* \"#utility.yul\":475:476   */\n  0x04\n    /* \"#utility.yul\":468:483   */\n  mstore\n    /* \"#utility.yul\":502:506   */\n  0x24\n    /* \"#utility.yul\":499:500   */\n  0x00\n    /* \"#utility.yul\":492:507   */\n  revert\n    /* \"contracts/lottery.sol\":74:2138  contract Lottery\r... */\ntag_6:\n  dataSize(sub_0)\n  dup1\n  dataOffset(sub_0)\n  0x00\n  codecopy\n  0x00\n  return\nstop\n\nsub_0: assembly {\n        /* \"contracts/lottery.sol\":74:2138  contract Lottery\r... */\n      mstore(0x40, 0x80)\n      jumpi(tag_1, lt(calldatasize, 0x04))\n      shr(0xe0, calldataload(0x00))\n      dup1\n      0x67e404ce\n      gt\n      tag_11\n      jumpi\n      dup1\n      0x67e404ce\n      eq\n      tag_7\n      jumpi\n      dup1\n      0xaa8c217c\n      eq\n      tag_8\n      jumpi\n      dup1\n      0xcfae3217\n      eq\n      tag_9\n      jumpi\n      dup1\n      0xf71d96cb\n      eq\n      tag_10\n      jumpi\n      jump(tag_2)\n    tag_11:\n      dup1\n      0x12065fe0\n      eq\n      tag_3\n      jumpi\n      dup1\n      0x1b9265b8\n      eq\n      tag_4\n      jumpi\n      dup1\n      0x481c6a75\n      eq\n      tag_5\n      jumpi\n      dup1\n      0x5d495aea\n      eq\n      tag_6\n      jumpi\n      jump(tag_2)\n    tag_1:\n      jumpi(tag_2, calldatasize)\n        /* \"contracts/lottery.sol\":820:829  0.1 ether */\n      0x016345785d8a0000\n        /* \"contracts/lottery.sol\":807:816  msg.value */\n      callvalue\n        /* \"contracts/lottery.sol\":807:829  msg.value == 0.1 ether */\n      eq\n        /* \"contracts/lottery.sol\":799:830  require(msg.value == 0.1 ether) */\n      tag_14\n      jumpi\n      0x00\n      dup1\n      revert\n    tag_14:\n        /* \"contracts/lottery.sol\":895:902  players */\n      0x00\n        /* \"contracts/lottery.sol\":916:926  msg.sender */\n      caller\n        /* \"contracts/lottery.sol\":895:928  players.push(payable(msg.sender)) */\n      swap1\n      dup1\n      0x01\n      dup2\n      sload\n      add\n      dup1\n      dup3\n      sstore\n      dup1\n      swap2\n      pop\n      pop\n      0x01\n      swap1\n      sub\n      swap1\n      0x00\n      mstore\n      keccak256(0x00, 0x20)\n      add\n      0x00\n      swap1\n      swap2\n      swap1\n      swap2\n      swap1\n      swap2\n      0x0100\n      exp\n      dup2\n      sload\n      dup2\n      0xffffffffffffffffffffffffffffffffffffffff\n      mul\n      not\n      and\n      swap1\n      dup4\n      0xffffffffffffffffffffffffffffffffffffffff\n      and\n      mul\n      or\n      swap1\n      sstore\n      pop\n        /* \"contracts/lottery.sol\":74:2138  contract Lottery\r... */\n      stop\n    tag_2:\n      0x00\n      dup1\n      revert\n        /* \"contracts/lottery.sol\":996:1190  function getBalance () public view returns (uint)\r... */\n    tag_3:\n      callvalue\n      dup1\n      iszero\n      tag_16\n      jumpi\n      0x00\n      dup1\n      revert\n    tag_16:\n      pop\n      tag_17\n      tag_18\n      jump\t// in\n    tag_17:\n      mload(0x40)\n      tag_19\n      swap2\n      swap1\n      tag_20\n      jump\t// in\n    tag_19:\n      mload(0x40)\n      dup1\n      swap2\n      sub\n      swap1\n      return\n        /* \"contracts/lottery.sol\":345:450  function pay () external payable\r... */\n    tag_4:\n      tag_21\n      tag_22\n      jump\t// in\n    tag_21:\n      stop\n        /* \"contracts/lottery.sol\":217:239  address public manager */\n    tag_5:\n      callvalue\n      dup1\n      iszero\n      tag_23\n      jumpi\n      0x00\n      dup1\n      revert\n    tag_23:\n      pop\n      tag_24\n      tag_25\n      jump\t// in\n    tag_24:\n      mload(0x40)\n      tag_26\n      swap2\n      swap1\n      tag_27\n      jump\t// in\n    tag_26:\n      mload(0x40)\n      dup1\n      swap2\n      sub\n      swap1\n      return\n        /* \"contracts/lottery.sol\":1455:2135  function pickWinner () public\r... */\n    tag_6:\n      callvalue\n      dup1\n      iszero\n      tag_28\n      jumpi\n      0x00\n      dup1\n      revert\n    tag_28:\n      pop\n      tag_29\n      tag_30\n      jump\t// in\n    tag_29:\n      stop\n        /* \"contracts/lottery.sol\":290:311  address public sender */\n    tag_7:\n      callvalue\n      dup1\n      iszero\n      tag_31\n      jumpi\n      0x00\n      dup1\n      revert\n    tag_31:\n      pop\n      tag_32\n      tag_33\n      jump\t// in\n    tag_32:\n      mload(0x40)\n      tag_34\n      swap2\n      swap1\n      tag_27\n      jump\t// in\n    tag_34:\n      mload(0x40)\n      dup1\n      swap2\n      sub\n      swap1\n      return\n        /* \"contracts/lottery.sol\":318:336  uint public amount */\n    tag_8:\n      callvalue\n      dup1\n      iszero\n      tag_35\n      jumpi\n      0x00\n      dup1\n      revert\n    tag_35:\n      pop\n      tag_36\n      tag_37\n      jump\t// in\n    tag_36:\n      mload(0x40)\n      tag_38\n      swap2\n      swap1\n      tag_20\n      jump\t// in\n    tag_38:\n      mload(0x40)\n      dup1\n      swap2\n      sub\n      swap1\n      return\n        /* \"contracts/lottery.sol\":248:283  string public greet = \"Hello World\" */\n    tag_9:\n      callvalue\n      dup1\n      iszero\n      tag_39\n      jumpi\n      0x00\n      dup1\n      revert\n    tag_39:\n      pop\n      tag_40\n      tag_41\n      jump\t// in\n    tag_40:\n      mload(0x40)\n      tag_42\n      swap2\n      swap1\n      tag_43\n      jump\t// in\n    tag_42:\n      mload(0x40)\n      dup1\n      swap2\n      sub\n      swap1\n      return\n        /* \"contracts/lottery.sol\":137:170  address payable [] public players */\n    tag_10:\n      callvalue\n      dup1\n      iszero\n      tag_44\n      jumpi\n      0x00\n      dup1\n      revert\n    tag_44:\n      pop\n      tag_45\n      0x04\n      dup1\n      calldatasize\n      sub\n      dup2\n      add\n      swap1\n      tag_46\n      swap2\n      swap1\n      tag_47\n      jump\t// in\n    tag_46:\n      tag_48\n      jump\t// in\n    tag_45:\n      mload(0x40)\n      tag_49\n      swap2\n      swap1\n      tag_50\n      jump\t// in\n    tag_49:\n      mload(0x40)\n      dup1\n      swap2\n      sub\n      swap1\n      return\n        /* \"contracts/lottery.sol\":996:1190  function getBalance () public view returns (uint)\r... */\n    tag_18:\n        /* \"contracts/lottery.sol\":1040:1044  uint */\n      0x00\n        /* \"contracts/lottery.sol\":1135:1142  manager */\n      0x01\n      0x00\n      swap1\n      sload\n      swap1\n      0x0100\n      exp\n      swap1\n      div\n      0xffffffffffffffffffffffffffffffffffffffff\n      and\n        /* \"contracts/lottery.sol\":1121:1142  msg.sender == manager */\n      0xffffffffffffffffffffffffffffffffffffffff\n      and\n        /* \"contracts/lottery.sol\":1121:1131  msg.sender */\n      caller\n        /* \"contracts/lottery.sol\":1121:1142  msg.sender == manager */\n      0xffffffffffffffffffffffffffffffffffffffff\n      and\n      eq\n        /* \"contracts/lottery.sol\":1113:1143  require(msg.sender == manager) */\n      tag_52\n      jumpi\n      0x00\n      dup1\n      revert\n    tag_52:\n        /* \"contracts/lottery.sol\":1161:1182  address(this).balance */\n      selfbalance\n        /* \"contracts/lottery.sol\":1154:1182  return address(this).balance */\n      swap1\n      pop\n        /* \"contracts/lottery.sol\":996:1190  function getBalance () public view returns (uint)\r... */\n      swap1\n      jump\t// out\n        /* \"contracts/lottery.sol\":345:450  function pay () external payable\r... */\n    tag_22:\n        /* \"contracts/lottery.sol\":403:413  msg.sender */\n      caller\n        /* \"contracts/lottery.sol\":394:400  sender */\n      0x03\n      0x00\n        /* \"contracts/lottery.sol\":394:413  sender = msg.sender */\n      0x0100\n      exp\n      dup2\n      sload\n      dup2\n      0xffffffffffffffffffffffffffffffffffffffff\n      mul\n      not\n      and\n      swap1\n      dup4\n      0xffffffffffffffffffffffffffffffffffffffff\n      and\n      mul\n      or\n      swap1\n      sstore\n      pop\n        /* \"contracts/lottery.sol\":433:442  msg.value */\n      callvalue\n        /* \"contracts/lottery.sol\":424:430  amount */\n      0x04\n        /* \"contracts/lottery.sol\":424:442  amount = msg.value */\n      dup2\n      swap1\n      sstore\n      pop\n        /* \"contracts/lottery.sol\":345:450  function pay () external payable\r... */\n      jump\t// out\n        /* \"contracts/lottery.sol\":217:239  address public manager */\n    tag_25:\n      0x01\n      0x00\n      swap1\n      sload\n      swap1\n      0x0100\n      exp\n      swap1\n      div\n      0xffffffffffffffffffffffffffffffffffffffff\n      and\n      dup2\n      jump\t// out\n        /* \"contracts/lottery.sol\":1455:2135  function pickWinner () public\r... */\n    tag_30:\n        /* \"contracts/lottery.sol\":1617:1624  manager */\n      0x01\n      0x00\n      swap1\n      sload\n      swap1\n      0x0100\n      exp\n      swap1\n      div\n      0xffffffffffffffffffffffffffffffffffffffff\n      and\n        /* \"contracts/lottery.sol\":1603:1624  msg.sender == manager */\n      0xffffffffffffffffffffffffffffffffffffffff\n      and\n        /* \"contracts/lottery.sol\":1603:1613  msg.sender */\n      caller\n        /* \"contracts/lottery.sol\":1603:1624  msg.sender == manager */\n      0xffffffffffffffffffffffffffffffffffffffff\n      and\n      eq\n        /* \"contracts/lottery.sol\":1595:1625  require(msg.sender == manager) */\n      tag_55\n      jumpi\n      0x00\n      dup1\n      revert\n    tag_55:\n        /* \"contracts/lottery.sol\":1662:1663  3 */\n      0x03\n        /* \"contracts/lottery.sol\":1644:1651  players */\n      0x00\n        /* \"contracts/lottery.sol\":1644:1658  players.length */\n      dup1\n      sload\n      swap1\n      pop\n        /* \"contracts/lottery.sol\":1644:1663  players.length >= 3 */\n      lt\n      iszero\n        /* \"contracts/lottery.sol\":1636:1664  require(players.length >= 3) */\n      tag_56\n      jumpi\n      0x00\n      dup1\n      revert\n    tag_56:\n        /* \"contracts/lottery.sol\":1685:1691  uint r */\n      0x00\n        /* \"contracts/lottery.sol\":1694:1702  random() */\n      tag_57\n        /* \"contracts/lottery.sol\":1694:1700  random */\n      tag_58\n        /* \"contracts/lottery.sol\":1694:1702  random() */\n      jump\t// in\n    tag_57:\n        /* \"contracts/lottery.sol\":1685:1702  uint r = random() */\n      swap1\n      pop\n        /* \"contracts/lottery.sol\":1713:1735  address payable winner */\n      0x00\n        /* \"contracts/lottery.sol\":1806:1816  uint index */\n      dup1\n        /* \"contracts/lottery.sol\":1823:1830  players */\n      0x00\n        /* \"contracts/lottery.sol\":1823:1837  players.length */\n      dup1\n      sload\n      swap1\n      pop\n        /* \"contracts/lottery.sol\":1819:1820  r */\n      dup4\n        /* \"contracts/lottery.sol\":1819:1837  r % players.length */\n      tag_59\n      swap2\n      swap1\n      tag_60\n      jump\t// in\n    tag_59:\n        /* \"contracts/lottery.sol\":1806:1837  uint index = r % players.length */\n      swap1\n      pop\n        /* \"contracts/lottery.sol\":1863:1870  players */\n      0x00\n        /* \"contracts/lottery.sol\":1871:1876  index */\n      dup2\n        /* \"contracts/lottery.sol\":1863:1877  players[index] */\n      dup2\n      sload\n      dup2\n      lt\n      tag_61\n      jumpi\n      tag_62\n      tag_63\n      jump\t// in\n    tag_62:\n    tag_61:\n      swap1\n      0x00\n      mstore\n      keccak256(0x00, 0x20)\n      add\n      0x00\n      swap1\n      sload\n      swap1\n      0x0100\n      exp\n      swap1\n      div\n      0xffffffffffffffffffffffffffffffffffffffff\n      and\n        /* \"contracts/lottery.sol\":1854:1877  winner = players[index] */\n      swap2\n      pop\n        /* \"contracts/lottery.sol\":1989:1995  winner */\n      dup2\n        /* \"contracts/lottery.sol\":1989:2004  winner.transfer */\n      0xffffffffffffffffffffffffffffffffffffffff\n      and\n        /* \"contracts/lottery.sol\":1989:2018  winner.transfer(getBalance()) */\n      0x08fc\n        /* \"contracts/lottery.sol\":2005:2017  getBalance() */\n      tag_65\n        /* \"contracts/lottery.sol\":2005:2015  getBalance */\n      tag_18\n        /* \"contracts/lottery.sol\":2005:2017  getBalance() */\n      jump\t// in\n    tag_65:\n        /* \"contracts/lottery.sol\":1989:2018  winner.transfer(getBalance()) */\n      swap1\n      dup2\n      iszero\n      mul\n      swap1\n      mload(0x40)\n      0x00\n      mload(0x40)\n      dup1\n      dup4\n      sub\n      dup2\n      dup6\n      dup9\n      dup9\n      call\n      swap4\n      pop\n      pop\n      pop\n      pop\n      iszero\n      dup1\n      iszero\n      tag_67\n      jumpi\n      returndatasize\n      0x00\n      dup1\n      returndatacopy\n      revert(0x00, returndatasize)\n    tag_67:\n      pop\n        /* \"contracts/lottery.sol\":2125:2126  0 */\n      0x00\n        /* \"contracts/lottery.sol\":2102:2127  new address payable [](0) */\n      0xffffffffffffffff\n      dup2\n      gt\n      iszero\n      tag_68\n      jumpi\n      tag_69\n      tag_70\n      jump\t// in\n    tag_69:\n    tag_68:\n      mload(0x40)\n      swap1\n      dup1\n      dup3\n      mstore\n      dup1\n      0x20\n      mul\n      0x20\n      add\n      dup3\n      add\n      0x40\n      mstore\n      dup1\n      iszero\n      tag_71\n      jumpi\n      dup2\n      0x20\n      add\n      0x20\n      dup3\n      mul\n      dup1\n      calldatasize\n      dup4\n      calldatacopy\n      dup1\n      dup3\n      add\n      swap2\n      pop\n      pop\n      swap1\n      pop\n    tag_71:\n      pop\n        /* \"contracts/lottery.sol\":2092:2099  players */\n      0x00\n        /* \"contracts/lottery.sol\":2092:2127  players = new address payable [](0) */\n      swap1\n      dup1\n      mload\n      swap1\n      0x20\n      add\n      swap1\n      tag_72\n      swap3\n      swap2\n      swap1\n      tag_73\n      jump\t// in\n    tag_72:\n      pop\n        /* \"contracts/lottery.sol\":1490:2135  {\r... */\n      pop\n      pop\n      pop\n        /* \"contracts/lottery.sol\":1455:2135  function pickWinner () public\r... */\n      jump\t// out\n        /* \"contracts/lottery.sol\":290:311  address public sender */\n    tag_33:\n      0x03\n      0x00\n      swap1\n      sload\n      swap1\n      0x0100\n      exp\n      swap1\n      div\n      0xffffffffffffffffffffffffffffffffffffffff\n      and\n      dup2\n      jump\t// out\n        /* \"contracts/lottery.sol\":318:336  uint public amount */\n    tag_37:\n      sload(0x04)\n      dup2\n      jump\t// out\n        /* \"contracts/lottery.sol\":248:283  string public greet = \"Hello World\" */\n    tag_41:\n      0x02\n      dup1\n      sload\n      tag_74\n      swap1\n      tag_75\n      jump\t// in\n    tag_74:\n      dup1\n      0x1f\n      add\n      0x20\n      dup1\n      swap2\n      div\n      mul\n      0x20\n      add\n      mload(0x40)\n      swap1\n      dup2\n      add\n      0x40\n      mstore\n      dup1\n      swap3\n      swap2\n      swap1\n      dup2\n      dup2\n      mstore\n      0x20\n      add\n      dup3\n      dup1\n      sload\n      tag_76\n      swap1\n      tag_75\n      jump\t// in\n    tag_76:\n      dup1\n      iszero\n      tag_77\n      jumpi\n      dup1\n      0x1f\n      lt\n      tag_78\n      jumpi\n      0x0100\n      dup1\n      dup4\n      sload\n      div\n      mul\n      dup4\n      mstore\n      swap2\n      0x20\n      add\n      swap2\n      jump(tag_77)\n    tag_78:\n      dup3\n      add\n      swap2\n      swap1\n      0x00\n      mstore\n      keccak256(0x00, 0x20)\n      swap1\n    tag_79:\n      dup2\n      sload\n      dup2\n      mstore\n      swap1\n      0x01\n      add\n      swap1\n      0x20\n      add\n      dup1\n      dup4\n      gt\n      tag_79\n      jumpi\n      dup3\n      swap1\n      sub\n      0x1f\n      and\n      dup3\n      add\n      swap2\n    tag_77:\n      pop\n      pop\n      pop\n      pop\n      pop\n      dup2\n      jump\t// out\n        /* \"contracts/lottery.sol\":137:170  address payable [] public players */\n    tag_48:\n      0x00\n      dup2\n      dup2\n      sload\n      dup2\n      lt\n      tag_80\n      jumpi\n      0x00\n      dup1\n      revert\n    tag_80:\n      swap1\n      0x00\n      mstore\n      keccak256(0x00, 0x20)\n      add\n      0x00\n      swap2\n      pop\n      sload\n      swap1\n      0x0100\n      exp\n      swap1\n      div\n      0xffffffffffffffffffffffffffffffffffffffff\n      and\n      dup2\n      jump\t// out\n        /* \"contracts/lottery.sol\":1256:1418  function random () internal view returns (uint)\r... */\n    tag_58:\n        /* \"contracts/lottery.sol\":1298:1302  uint */\n      0x00\n        /* \"contracts/lottery.sol\":1358:1374  block.difficulty */\n      difficulty\n        /* \"contracts/lottery.sol\":1376:1391  block.timestamp */\n      timestamp\n        /* \"contracts/lottery.sol\":1393:1400  players */\n      0x00\n        /* \"contracts/lottery.sol\":1393:1407  players.length */\n      dup1\n      sload\n      swap1\n      pop\n        /* \"contracts/lottery.sol\":1341:1408  abi.encodePacked(block.difficulty, block.timestamp, players.length) */\n      add(0x20, mload(0x40))\n      tag_83\n      swap4\n      swap3\n      swap2\n      swap1\n      tag_84\n      jump\t// in\n    tag_83:\n      mload(0x40)\n      0x20\n      dup2\n      dup4\n      sub\n      sub\n      dup2\n      mstore\n      swap1\n      0x40\n      mstore\n        /* \"contracts/lottery.sol\":1331:1409  keccak256(abi.encodePacked(block.difficulty, block.timestamp, players.length)) */\n      dup1\n      mload\n      swap1\n      0x20\n      add\n      keccak256\n        /* \"contracts/lottery.sol\":1326:1410  uint(keccak256(abi.encodePacked(block.difficulty, block.timestamp, players.length))) */\n      0x00\n      shr\n        /* \"contracts/lottery.sol\":1319:1410  return uint(keccak256(abi.encodePacked(block.difficulty, block.timestamp, players.length))) */\n      swap1\n      pop\n        /* \"contracts/lottery.sol\":1256:1418  function random () internal view returns (uint)\r... */\n      swap1\n      jump\t// out\n    tag_73:\n      dup3\n      dup1\n      sload\n      dup3\n      dup3\n      sstore\n      swap1\n      0x00\n      mstore\n      keccak256(0x00, 0x20)\n      swap1\n      dup2\n      add\n      swap3\n      dup3\n      iszero\n      tag_85\n      jumpi\n      swap2\n      0x20\n      mul\n      dup3\n      add\n    tag_86:\n      dup3\n      dup2\n      gt\n      iszero\n      tag_87\n      jumpi\n      dup3\n      mload\n      dup3\n      exp(0x0100, 0x00)\n      dup2\n      sload\n      dup2\n      0xffffffffffffffffffffffffffffffffffffffff\n      mul\n      not\n      and\n      swap1\n      dup4\n      0xffffffffffffffffffffffffffffffffffffffff\n      and\n      mul\n      or\n      swap1\n      sstore\n      pop\n      swap2\n      0x20\n      add\n      swap2\n      swap1\n      0x01\n      add\n      swap1\n      jump(tag_86)\n    tag_87:\n    tag_85:\n      pop\n      swap1\n      pop\n      tag_88\n      swap2\n      swap1\n      tag_89\n      jump\t// in\n    tag_88:\n      pop\n      swap1\n      jump\t// out\n    tag_89:\n    tag_90:\n      dup1\n      dup3\n      gt\n      iszero\n      tag_91\n      jumpi\n      0x00\n      dup2\n      0x00\n      swap1\n      sstore\n      pop\n      0x01\n      add\n      jump(tag_90)\n    tag_91:\n      pop\n      swap1\n      jump\t// out\n        /* \"#utility.yul\":7:146   */\n    tag_93:\n        /* \"#utility.yul\":53:58   */\n      0x00\n        /* \"#utility.yul\":91:97   */\n      dup2\n        /* \"#utility.yul\":78:98   */\n      calldataload\n        /* \"#utility.yul\":69:98   */\n      swap1\n      pop\n        /* \"#utility.yul\":107:140   */\n      tag_95\n        /* \"#utility.yul\":134:139   */\n      dup2\n        /* \"#utility.yul\":107:140   */\n      tag_96\n      jump\t// in\n    tag_95:\n        /* \"#utility.yul\":7:146   */\n      swap3\n      swap2\n      pop\n      pop\n      jump\t// out\n        /* \"#utility.yul\":152:481   */\n    tag_47:\n        /* \"#utility.yul\":211:217   */\n      0x00\n        /* \"#utility.yul\":260:262   */\n      0x20\n        /* \"#utility.yul\":248:257   */\n      dup3\n        /* \"#utility.yul\":239:246   */\n      dup5\n        /* \"#utility.yul\":235:258   */\n      sub\n        /* \"#utility.yul\":231:263   */\n      slt\n        /* \"#utility.yul\":228:347   */\n      iszero\n      tag_98\n      jumpi\n        /* \"#utility.yul\":266:345   */\n      tag_99\n      tag_100\n      jump\t// in\n    tag_99:\n        /* \"#utility.yul\":228:347   */\n    tag_98:\n        /* \"#utility.yul\":386:387   */\n      0x00\n        /* \"#utility.yul\":411:464   */\n      tag_101\n        /* \"#utility.yul\":456:463   */\n      dup5\n        /* \"#utility.yul\":447:453   */\n      dup3\n        /* \"#utility.yul\":436:445   */\n      dup6\n        /* \"#utility.yul\":432:454   */\n      add\n        /* \"#utility.yul\":411:464   */\n      tag_93\n      jump\t// in\n    tag_101:\n        /* \"#utility.yul\":401:464   */\n      swap2\n      pop\n        /* \"#utility.yul\":357:474   */\n      pop\n        /* \"#utility.yul\":152:481   */\n      swap3\n      swap2\n      pop\n      pop\n      jump\t// out\n        /* \"#utility.yul\":487:629   */\n    tag_102:\n        /* \"#utility.yul\":590:622   */\n      tag_104\n        /* \"#utility.yul\":616:621   */\n      dup2\n        /* \"#utility.yul\":590:622   */\n      tag_105\n      jump\t// in\n    tag_104:\n        /* \"#utility.yul\":585:588   */\n      dup3\n        /* \"#utility.yul\":578:623   */\n      mstore\n        /* \"#utility.yul\":487:629   */\n      pop\n      pop\n      jump\t// out\n        /* \"#utility.yul\":635:753   */\n    tag_106:\n        /* \"#utility.yul\":722:746   */\n      tag_108\n        /* \"#utility.yul\":740:745   */\n      dup2\n        /* \"#utility.yul\":722:746   */\n      tag_109\n      jump\t// in\n    tag_108:\n        /* \"#utility.yul\":717:720   */\n      dup3\n        /* \"#utility.yul\":710:747   */\n      mstore\n        /* \"#utility.yul\":635:753   */\n      pop\n      pop\n      jump\t// out\n        /* \"#utility.yul\":759:1123   */\n    tag_110:\n        /* \"#utility.yul\":847:850   */\n      0x00\n        /* \"#utility.yul\":875:914   */\n      tag_112\n        /* \"#utility.yul\":908:913   */\n      dup3\n        /* \"#utility.yul\":875:914   */\n      tag_113\n      jump\t// in\n    tag_112:\n        /* \"#utility.yul\":930:1001   */\n      tag_114\n        /* \"#utility.yul\":994:1000   */\n      dup2\n        /* \"#utility.yul\":989:992   */\n      dup6\n        /* \"#utility.yul\":930:1001   */\n      tag_115\n      jump\t// in\n    tag_114:\n        /* \"#utility.yul\":923:1001   */\n      swap4\n      pop\n        /* \"#utility.yul\":1010:1062   */\n      tag_116\n        /* \"#utility.yul\":1055:1061   */\n      dup2\n        /* \"#utility.yul\":1050:1053   */\n      dup6\n        /* \"#utility.yul\":1043:1047   */\n      0x20\n        /* \"#utility.yul\":1036:1041   */\n      dup7\n        /* \"#utility.yul\":1032:1048   */\n      add\n        /* \"#utility.yul\":1010:1062   */\n      tag_117\n      jump\t// in\n    tag_116:\n        /* \"#utility.yul\":1087:1116   */\n      tag_118\n        /* \"#utility.yul\":1109:1115   */\n      dup2\n        /* \"#utility.yul\":1087:1116   */\n      tag_119\n      jump\t// in\n    tag_118:\n        /* \"#utility.yul\":1082:1085   */\n      dup5\n        /* \"#utility.yul\":1078:1117   */\n      add\n        /* \"#utility.yul\":1071:1117   */\n      swap2\n      pop\n        /* \"#utility.yul\":851:1123   */\n      pop\n        /* \"#utility.yul\":759:1123   */\n      swap3\n      swap2\n      pop\n      pop\n      jump\t// out\n        /* \"#utility.yul\":1129:1247   */\n    tag_120:\n        /* \"#utility.yul\":1216:1240   */\n      tag_122\n        /* \"#utility.yul\":1234:1239   */\n      dup2\n        /* \"#utility.yul\":1216:1240   */\n      tag_123\n      jump\t// in\n    tag_122:\n        /* \"#utility.yul\":1211:1214   */\n      dup3\n        /* \"#utility.yul\":1204:1241   */\n      mstore\n        /* \"#utility.yul\":1129:1247   */\n      pop\n      pop\n      jump\t// out\n        /* \"#utility.yul\":1253:1410   */\n    tag_124:\n        /* \"#utility.yul\":1358:1403   */\n      tag_126\n        /* \"#utility.yul\":1378:1402   */\n      tag_127\n        /* \"#utility.yul\":1396:1401   */\n      dup3\n        /* \"#utility.yul\":1378:1402   */\n      tag_123\n      jump\t// in\n    tag_127:\n        /* \"#utility.yul\":1358:1403   */\n      tag_128\n      jump\t// in\n    tag_126:\n        /* \"#utility.yul\":1353:1356   */\n      dup3\n        /* \"#utility.yul\":1346:1404   */\n      mstore\n        /* \"#utility.yul\":1253:1410   */\n      pop\n      pop\n      jump\t// out\n        /* \"#utility.yul\":1416:1954   */\n    tag_84:\n        /* \"#utility.yul\":1584:1587   */\n      0x00\n        /* \"#utility.yul\":1599:1674   */\n      tag_130\n        /* \"#utility.yul\":1670:1673   */\n      dup3\n        /* \"#utility.yul\":1661:1667   */\n      dup7\n        /* \"#utility.yul\":1599:1674   */\n      tag_124\n      jump\t// in\n    tag_130:\n        /* \"#utility.yul\":1699:1701   */\n      0x20\n        /* \"#utility.yul\":1694:1697   */\n      dup3\n        /* \"#utility.yul\":1690:1702   */\n      add\n        /* \"#utility.yul\":1683:1702   */\n      swap2\n      pop\n        /* \"#utility.yul\":1712:1787   */\n      tag_131\n        /* \"#utility.yul\":1783:1786   */\n      dup3\n        /* \"#utility.yul\":1774:1780   */\n      dup6\n        /* \"#utility.yul\":1712:1787   */\n      tag_124\n      jump\t// in\n    tag_131:\n        /* \"#utility.yul\":1812:1814   */\n      0x20\n        /* \"#utility.yul\":1807:1810   */\n      dup3\n        /* \"#utility.yul\":1803:1815   */\n      add\n        /* \"#utility.yul\":1796:1815   */\n      swap2\n      pop\n        /* \"#utility.yul\":1825:1900   */\n      tag_132\n        /* \"#utility.yul\":1896:1899   */\n      dup3\n        /* \"#utility.yul\":1887:1893   */\n      dup5\n        /* \"#utility.yul\":1825:1900   */\n      tag_124\n      jump\t// in\n    tag_132:\n        /* \"#utility.yul\":1925:1927   */\n      0x20\n        /* \"#utility.yul\":1920:1923   */\n      dup3\n        /* \"#utility.yul\":1916:1928   */\n      add\n        /* \"#utility.yul\":1909:1928   */\n      swap2\n      pop\n        /* \"#utility.yul\":1945:1948   */\n      dup2\n        /* \"#utility.yul\":1938:1948   */\n      swap1\n      pop\n        /* \"#utility.yul\":1416:1954   */\n      swap5\n      swap4\n      pop\n      pop\n      pop\n      pop\n      jump\t// out\n        /* \"#utility.yul\":1960:2182   */\n    tag_27:\n        /* \"#utility.yul\":2053:2057   */\n      0x00\n        /* \"#utility.yul\":2091:2093   */\n      0x20\n        /* \"#utility.yul\":2080:2089   */\n      dup3\n        /* \"#utility.yul\":2076:2094   */\n      add\n        /* \"#utility.yul\":2068:2094   */\n      swap1\n      pop\n        /* \"#utility.yul\":2104:2175   */\n      tag_134\n        /* \"#utility.yul\":2172:2173   */\n      0x00\n        /* \"#utility.yul\":2161:2170   */\n      dup4\n        /* \"#utility.yul\":2157:2174   */\n      add\n        /* \"#utility.yul\":2148:2154   */\n      dup5\n        /* \"#utility.yul\":2104:2175   */\n      tag_106\n      jump\t// in\n    tag_134:\n        /* \"#utility.yul\":1960:2182   */\n      swap3\n      swap2\n      pop\n      pop\n      jump\t// out\n        /* \"#utility.yul\":2188:2442   */\n    tag_50:\n        /* \"#utility.yul\":2297:2301   */\n      0x00\n        /* \"#utility.yul\":2335:2337   */\n      0x20\n        /* \"#utility.yul\":2324:2333   */\n      dup3\n        /* \"#utility.yul\":2320:2338   */\n      add\n        /* \"#utility.yul\":2312:2338   */\n      swap1\n      pop\n        /* \"#utility.yul\":2348:2435   */\n      tag_136\n        /* \"#utility.yul\":2432:2433   */\n      0x00\n        /* \"#utility.yul\":2421:2430   */\n      dup4\n        /* \"#utility.yul\":2417:2434   */\n      add\n        /* \"#utility.yul\":2408:2414   */\n      dup5\n        /* \"#utility.yul\":2348:2435   */\n      tag_102\n      jump\t// in\n    tag_136:\n        /* \"#utility.yul\":2188:2442   */\n      swap3\n      swap2\n      pop\n      pop\n      jump\t// out\n        /* \"#utility.yul\":2448:2761   */\n    tag_43:\n        /* \"#utility.yul\":2561:2565   */\n      0x00\n        /* \"#utility.yul\":2599:2601   */\n      0x20\n        /* \"#utility.yul\":2588:2597   */\n      dup3\n        /* \"#utility.yul\":2584:2602   */\n      add\n        /* \"#utility.yul\":2576:2602   */\n      swap1\n      pop\n        /* \"#utility.yul\":2648:2657   */\n      dup2\n        /* \"#utility.yul\":2642:2646   */\n      dup2\n        /* \"#utility.yul\":2638:2658   */\n      sub\n        /* \"#utility.yul\":2634:2635   */\n      0x00\n        /* \"#utility.yul\":2623:2632   */\n      dup4\n        /* \"#utility.yul\":2619:2636   */\n      add\n        /* \"#utility.yul\":2612:2659   */\n      mstore\n        /* \"#utility.yul\":2676:2754   */\n      tag_138\n        /* \"#utility.yul\":2749:2753   */\n      dup2\n        /* \"#utility.yul\":2740:2746   */\n      dup5\n        /* \"#utility.yul\":2676:2754   */\n      tag_110\n      jump\t// in\n    tag_138:\n        /* \"#utility.yul\":2668:2754   */\n      swap1\n      pop\n        /* \"#utility.yul\":2448:2761   */\n      swap3\n      swap2\n      pop\n      pop\n      jump\t// out\n        /* \"#utility.yul\":2767:2989   */\n    tag_20:\n        /* \"#utility.yul\":2860:2864   */\n      0x00\n        /* \"#utility.yul\":2898:2900   */\n      0x20\n        /* \"#utility.yul\":2887:2896   */\n      dup3\n        /* \"#utility.yul\":2883:2901   */\n      add\n        /* \"#utility.yul\":2875:2901   */\n      swap1\n      pop\n        /* \"#utility.yul\":2911:2982   */\n      tag_140\n        /* \"#utility.yul\":2979:2980   */\n      0x00\n        /* \"#utility.yul\":2968:2977   */\n      dup4\n        /* \"#utility.yul\":2964:2981   */\n      add\n        /* \"#utility.yul\":2955:2961   */\n      dup5\n        /* \"#utility.yul\":2911:2982   */\n      tag_120\n      jump\t// in\n    tag_140:\n        /* \"#utility.yul\":2767:2989   */\n      swap3\n      swap2\n      pop\n      pop\n      jump\t// out\n        /* \"#utility.yul\":3076:3175   */\n    tag_113:\n        /* \"#utility.yul\":3128:3134   */\n      0x00\n        /* \"#utility.yul\":3162:3167   */\n      dup2\n        /* \"#utility.yul\":3156:3168   */\n      mload\n        /* \"#utility.yul\":3146:3168   */\n      swap1\n      pop\n        /* \"#utility.yul\":3076:3175   */\n      swap2\n      swap1\n      pop\n      jump\t// out\n        /* \"#utility.yul\":3181:3350   */\n    tag_115:\n        /* \"#utility.yul\":3265:3276   */\n      0x00\n        /* \"#utility.yul\":3299:3305   */\n      dup3\n        /* \"#utility.yul\":3294:3297   */\n      dup3\n        /* \"#utility.yul\":3287:3306   */\n      mstore\n        /* \"#utility.yul\":3339:3343   */\n      0x20\n        /* \"#utility.yul\":3334:3337   */\n      dup3\n        /* \"#utility.yul\":3330:3344   */\n      add\n        /* \"#utility.yul\":3315:3344   */\n      swap1\n      pop\n        /* \"#utility.yul\":3181:3350   */\n      swap3\n      swap2\n      pop\n      pop\n      jump\t// out\n        /* \"#utility.yul\":3356:3452   */\n    tag_109:\n        /* \"#utility.yul\":3393:3400   */\n      0x00\n        /* \"#utility.yul\":3422:3446   */\n      tag_146\n        /* \"#utility.yul\":3440:3445   */\n      dup3\n        /* \"#utility.yul\":3422:3446   */\n      tag_147\n      jump\t// in\n    tag_146:\n        /* \"#utility.yul\":3411:3446   */\n      swap1\n      pop\n        /* \"#utility.yul\":3356:3452   */\n      swap2\n      swap1\n      pop\n      jump\t// out\n        /* \"#utility.yul\":3458:3562   */\n    tag_105:\n        /* \"#utility.yul\":3503:3510   */\n      0x00\n        /* \"#utility.yul\":3532:3556   */\n      tag_149\n        /* \"#utility.yul\":3550:3555   */\n      dup3\n        /* \"#utility.yul\":3532:3556   */\n      tag_147\n      jump\t// in\n    tag_149:\n        /* \"#utility.yul\":3521:3556   */\n      swap1\n      pop\n        /* \"#utility.yul\":3458:3562   */\n      swap2\n      swap1\n      pop\n      jump\t// out\n        /* \"#utility.yul\":3568:3694   */\n    tag_147:\n        /* \"#utility.yul\":3605:3612   */\n      0x00\n        /* \"#utility.yul\":3645:3687   */\n      0xffffffffffffffffffffffffffffffffffffffff\n        /* \"#utility.yul\":3638:3643   */\n      dup3\n        /* \"#utility.yul\":3634:3688   */\n      and\n        /* \"#utility.yul\":3623:3688   */\n      swap1\n      pop\n        /* \"#utility.yul\":3568:3694   */\n      swap2\n      swap1\n      pop\n      jump\t// out\n        /* \"#utility.yul\":3700:3777   */\n    tag_123:\n        /* \"#utility.yul\":3737:3744   */\n      0x00\n        /* \"#utility.yul\":3766:3771   */\n      dup2\n        /* \"#utility.yul\":3755:3771   */\n      swap1\n      pop\n        /* \"#utility.yul\":3700:3777   */\n      swap2\n      swap1\n      pop\n      jump\t// out\n        /* \"#utility.yul\":3783:4090   */\n    tag_117:\n        /* \"#utility.yul\":3851:3852   */\n      0x00\n        /* \"#utility.yul\":3861:3974   */\n    tag_153:\n        /* \"#utility.yul\":3875:3881   */\n      dup4\n        /* \"#utility.yul\":3872:3873   */\n      dup2\n        /* \"#utility.yul\":3869:3882   */\n      lt\n        /* \"#utility.yul\":3861:3974   */\n      iszero\n      tag_155\n      jumpi\n        /* \"#utility.yul\":3960:3961   */\n      dup1\n        /* \"#utility.yul\":3955:3958   */\n      dup3\n        /* \"#utility.yul\":3951:3962   */\n      add\n        /* \"#utility.yul\":3945:3963   */\n      mload\n        /* \"#utility.yul\":3941:3942   */\n      dup2\n        /* \"#utility.yul\":3936:3939   */\n      dup5\n        /* \"#utility.yul\":3932:3943   */\n      add\n        /* \"#utility.yul\":3925:3964   */\n      mstore\n        /* \"#utility.yul\":3897:3899   */\n      0x20\n        /* \"#utility.yul\":3894:3895   */\n      dup2\n        /* \"#utility.yul\":3890:3900   */\n      add\n        /* \"#utility.yul\":3885:3900   */\n      swap1\n      pop\n        /* \"#utility.yul\":3861:3974   */\n      jump(tag_153)\n    tag_155:\n        /* \"#utility.yul\":3992:3998   */\n      dup4\n        /* \"#utility.yul\":3989:3990   */\n      dup2\n        /* \"#utility.yul\":3986:3999   */\n      gt\n        /* \"#utility.yul\":3983:4084   */\n      iszero\n      tag_156\n      jumpi\n        /* \"#utility.yul\":4072:4073   */\n      0x00\n        /* \"#utility.yul\":4063:4069   */\n      dup5\n        /* \"#utility.yul\":4058:4061   */\n      dup5\n        /* \"#utility.yul\":4054:4070   */\n      add\n        /* \"#utility.yul\":4047:4074   */\n      mstore\n        /* \"#utility.yul\":3983:4084   */\n    tag_156:\n        /* \"#utility.yul\":3832:4090   */\n      pop\n        /* \"#utility.yul\":3783:4090   */\n      pop\n      pop\n      pop\n      jump\t// out\n        /* \"#utility.yul\":4096:4416   */\n    tag_75:\n        /* \"#utility.yul\":4140:4146   */\n      0x00\n        /* \"#utility.yul\":4177:4178   */\n      0x02\n        /* \"#utility.yul\":4171:4175   */\n      dup3\n        /* \"#utility.yul\":4167:4179   */\n      div\n        /* \"#utility.yul\":4157:4179   */\n      swap1\n      pop\n        /* \"#utility.yul\":4224:4225   */\n      0x01\n        /* \"#utility.yul\":4218:4222   */\n      dup3\n        /* \"#utility.yul\":4214:4226   */\n      and\n        /* \"#utility.yul\":4245:4263   */\n      dup1\n        /* \"#utility.yul\":4235:4316   */\n      tag_158\n      jumpi\n        /* \"#utility.yul\":4301:4305   */\n      0x7f\n        /* \"#utility.yul\":4293:4299   */\n      dup3\n        /* \"#utility.yul\":4289:4306   */\n      and\n        /* \"#utility.yul\":4279:4306   */\n      swap2\n      pop\n        /* \"#utility.yul\":4235:4316   */\n    tag_158:\n        /* \"#utility.yul\":4363:4365   */\n      0x20\n        /* \"#utility.yul\":4355:4361   */\n      dup3\n        /* \"#utility.yul\":4352:4366   */\n      lt\n        /* \"#utility.yul\":4332:4350   */\n      dup2\n        /* \"#utility.yul\":4329:4367   */\n      eq\n        /* \"#utility.yul\":4326:4410   */\n      iszero\n      tag_159\n      jumpi\n        /* \"#utility.yul\":4382:4400   */\n      tag_160\n      tag_161\n      jump\t// in\n    tag_160:\n        /* \"#utility.yul\":4326:4410   */\n    tag_159:\n        /* \"#utility.yul\":4147:4416   */\n      pop\n        /* \"#utility.yul\":4096:4416   */\n      swap2\n      swap1\n      pop\n      jump\t// out\n        /* \"#utility.yul\":4422:4501   */\n    tag_128:\n        /* \"#utility.yul\":4461:4468   */\n      0x00\n        /* \"#utility.yul\":4490:4495   */\n      dup2\n        /* \"#utility.yul\":4479:4495   */\n      swap1\n      pop\n        /* \"#utility.yul\":4422:4501   */\n      swap2\n      swap1\n      pop\n      jump\t// out\n        /* \"#utility.yul\":4507:4683   */\n    tag_60:\n        /* \"#utility.yul\":4539:4540   */\n      0x00\n        /* \"#utility.yul\":4556:4576   */\n      tag_164\n        /* \"#utility.yul\":4574:4575   */\n      dup3\n        /* \"#utility.yul\":4556:4576   */\n      tag_123\n      jump\t// in\n    tag_164:\n        /* \"#utility.yul\":4551:4576   */\n      swap2\n      pop\n        /* \"#utility.yul\":4590:4610   */\n      tag_165\n        /* \"#utility.yul\":4608:4609   */\n      dup4\n        /* \"#utility.yul\":4590:4610   */\n      tag_123\n      jump\t// in\n    tag_165:\n        /* \"#utility.yul\":4585:4610   */\n      swap3\n      pop\n        /* \"#utility.yul\":4629:4630   */\n      dup3\n        /* \"#utility.yul\":4619:4654   */\n      tag_166\n      jumpi\n        /* \"#utility.yul\":4634:4652   */\n      tag_167\n      tag_168\n      jump\t// in\n    tag_167:\n        /* \"#utility.yul\":4619:4654   */\n    tag_166:\n        /* \"#utility.yul\":4675:4676   */\n      dup3\n        /* \"#utility.yul\":4672:4673   */\n      dup3\n        /* \"#utility.yul\":4668:4677   */\n      mod\n        /* \"#utility.yul\":4663:4677   */\n      swap1\n      pop\n        /* \"#utility.yul\":4507:4683   */\n      swap3\n      swap2\n      pop\n      pop\n      jump\t// out\n        /* \"#utility.yul\":4689:4869   */\n    tag_168:\n        /* \"#utility.yul\":4737:4814   */\n      0x4e487b7100000000000000000000000000000000000000000000000000000000\n        /* \"#utility.yul\":4734:4735   */\n      0x00\n        /* \"#utility.yul\":4727:4815   */\n      mstore\n        /* \"#utility.yul\":4834:4838   */\n      0x12\n        /* \"#utility.yul\":4831:4832   */\n      0x04\n        /* \"#utility.yul\":4824:4839   */\n      mstore\n        /* \"#utility.yul\":4858:4862   */\n      0x24\n        /* \"#utility.yul\":4855:4856   */\n      0x00\n        /* \"#utility.yul\":4848:4863   */\n      revert\n        /* \"#utility.yul\":4875:5055   */\n    tag_161:\n        /* \"#utility.yul\":4923:5000   */\n      0x4e487b7100000000000000000000000000000000000000000000000000000000\n        /* \"#utility.yul\":4920:4921   */\n      0x00\n        /* \"#utility.yul\":4913:5001   */\n      mstore\n        /* \"#utility.yul\":5020:5024   */\n      0x22\n        /* \"#utility.yul\":5017:5018   */\n      0x04\n        /* \"#utility.yul\":5010:5025   */\n      mstore\n        /* \"#utility.yul\":5044:5048   */\n      0x24\n        /* \"#utility.yul\":5041:5042   */\n      0x00\n        /* \"#utility.yul\":5034:5049   */\n      revert\n        /* \"#utility.yul\":5061:5241   */\n    tag_63:\n        /* \"#utility.yul\":5109:5186   */\n      0x4e487b7100000000000000000000000000000000000000000000000000000000\n        /* \"#utility.yul\":5106:5107   */\n      0x00\n        /* \"#utility.yul\":5099:5187   */\n      mstore\n        /* \"#utility.yul\":5206:5210   */\n      0x32\n        /* \"#utility.yul\":5203:5204   */\n      0x04\n        /* \"#utility.yul\":5196:5211   */\n      mstore\n        /* \"#utility.yul\":5230:5234   */\n      0x24\n        /* \"#utility.yul\":5227:5228   */\n      0x00\n        /* \"#utility.yul\":5220:5235   */\n      revert\n        /* \"#utility.yul\":5247:5427   */\n    tag_70:\n        /* \"#utility.yul\":5295:5372   */\n      0x4e487b7100000000000000000000000000000000000000000000000000000000\n        /* \"#utility.yul\":5292:5293   */\n      0x00\n        /* \"#utility.yul\":5285:5373   */\n      mstore\n        /* \"#utility.yul\":5392:5396   */\n      0x41\n        /* \"#utility.yul\":5389:5390   */\n      0x04\n        /* \"#utility.yul\":5382:5397   */\n      mstore\n        /* \"#utility.yul\":5416:5420   */\n      0x24\n        /* \"#utility.yul\":5413:5414   */\n      0x00\n        /* \"#utility.yul\":5406:5421   */\n      revert\n        /* \"#utility.yul\":5556:5673   */\n    tag_100:\n        /* \"#utility.yul\":5665:5666   */\n      0x00\n        /* \"#utility.yul\":5662:5663   */\n      dup1\n        /* \"#utility.yul\":5655:5667   */\n      revert\n        /* \"#utility.yul\":5679:5781   */\n    tag_119:\n        /* \"#utility.yul\":5720:5726   */\n      0x00\n        /* \"#utility.yul\":5771:5773   */\n      0x1f\n        /* \"#utility.yul\":5767:5774   */\n      not\n        /* \"#utility.yul\":5762:5764   */\n      0x1f\n        /* \"#utility.yul\":5755:5760   */\n      dup4\n        /* \"#utility.yul\":5751:5765   */\n      add\n        /* \"#utility.yul\":5747:5775   */\n      and\n        /* \"#utility.yul\":5737:5775   */\n      swap1\n      pop\n        /* \"#utility.yul\":5679:5781   */\n      swap2\n      swap1\n      pop\n      jump\t// out\n        /* \"#utility.yul\":5787:5909   */\n    tag_96:\n        /* \"#utility.yul\":5860:5884   */\n      tag_178\n        /* \"#utility.yul\":5878:5883   */\n      dup2\n        /* \"#utility.yul\":5860:5884   */\n      tag_123\n      jump\t// in\n    tag_178:\n        /* \"#utility.yul\":5853:5858   */\n      dup2\n        /* \"#utility.yul\":5850:5885   */\n      eq\n        /* \"#utility.yul\":5840:5903   */\n      tag_179\n      jumpi\n        /* \"#utility.yul\":5899:5900   */\n      0x00\n        /* \"#utility.yul\":5896:5897   */\n      dup1\n        /* \"#utility.yul\":5889:5901   */\n      revert\n        /* \"#utility.yul\":5840:5903   */\n    tag_179:\n        /* \"#utility.yul\":5787:5909   */\n      pop\n      jump\t// out\n\n    auxdata: 0xa26469706673582212207750fb84337e3d5c63538f8b618c55d1a773c411ea1a976ddbf2310f31ed148164736f6c63430008070033\n}\n",
				"bytecode": {
					"linkReferences": {},
					"object": "60806040526040518060400160405280600b81526020017f48656c6c6f20576f726c640000000000000000000000000000000000000000008152506002908051906020019061004f9291906100a3565b5034801561005c57600080fd5b5033600160006101000a81548173ffffffffffffffffffffffffffffffffffffffff021916908373ffffffffffffffffffffffffffffffffffffffff1602179055506101a7565b8280546100af90610146565b90600052602060002090601f0160209004810192826100d15760008555610118565b82601f106100ea57805160ff1916838001178555610118565b82800160010185558215610118579182015b828111156101175782518255916020019190600101906100fc565b5b5090506101259190610129565b5090565b5b8082111561014257600081600090555060010161012a565b5090565b6000600282049050600182168061015e57607f821691505b6020821081141561017257610171610178565b5b50919050565b7f4e487b7100000000000000000000000000000000000000000000000000000000600052602260045260246000fd5b6109fe806101b66000396000f3fe60806040526004361061007f5760003560e01c806367e404ce1161004e57806367e404ce14610179578063aa8c217c146101a4578063cfae3217146101cf578063f71d96cb146101fa576100fd565b806312065fe0146101025780631b9265b81461012d578063481c6a75146101375780635d495aea14610162576100fd565b366100fd5767016345785d8a0000341461009857600080fd5b6000339080600181540180825580915050600190039060005260206000200160009091909190916101000a81548173ffffffffffffffffffffffffffffffffffffffff021916908373ffffffffffffffffffffffffffffffffffffffff160217905550005b600080fd5b34801561010e57600080fd5b50610117610237565b60405161012491906107ba565b60405180910390f35b610135610299565b005b34801561014357600080fd5b5061014c6102e3565b6040516101599190610762565b60405180910390f35b34801561016e57600080fd5b50610177610309565b005b34801561018557600080fd5b5061018e61048c565b60405161019b9190610762565b60405180910390f35b3480156101b057600080fd5b506101b96104b2565b6040516101c691906107ba565b60405180910390f35b3480156101db57600080fd5b506101e46104b8565b6040516101f19190610798565b60405180910390f35b34801561020657600080fd5b50610221600480360381019061021c919061067b565b610546565b60405161022e919061077d565b60405180910390f35b6000600160009054906101000a900473ffffffffffffffffffffffffffffffffffffffff1673ffffffffffffffffffffffffffffffffffffffff163373ffffffffffffffffffffffffffffffffffffffff161461029357600080fd5b47905090565b33600360006101000a81548173ffffffffffffffffffffffffffffffffffffffff021916908373ffffffffffffffffffffffffffffffffffffffff16021790555034600481905550565b600160009054906101000a900473ffffffffffffffffffffffffffffffffffffffff1681565b600160009054906101000a900473ffffffffffffffffffffffffffffffffffffffff1673ffffffffffffffffffffffffffffffffffffffff163373ffffffffffffffffffffffffffffffffffffffff161461036357600080fd5b6003600080549050101561037657600080fd5b6000610380610585565b90506000806000805490508361039691906108ae565b9050600081815481106103ac576103ab61093d565b5b9060005260206000200160009054906101000a900473ffffffffffffffffffffffffffffffffffffffff1691508173ffffffffffffffffffffffffffffffffffffffff166108fc6103fb610237565b9081150290604051600060405180830381858888f19350505050158015610426573d6000803e3d6000fd5b50600067ffffffffffffffff8111156104425761044161096c565b5b6040519080825280602002602001820160405280156104705781602001602082028036833780820191505090505b50600090805190602001906104869291906105bf565b50505050565b600360009054906101000a900473ffffffffffffffffffffffffffffffffffffffff1681565b60045481565b600280546104c590610872565b80601f01602080910402602001604051908101604052809291908181526020018280546104f190610872565b801561053e5780601f106105135761010080835404028352916020019161053e565b820191906000526020600020905b81548152906001019060200180831161052157829003601f168201915b505050505081565b6000818154811061055657600080fd5b906000526020600020016000915054906101000a900473ffffffffffffffffffffffffffffffffffffffff1681565b600044426000805490506040516020016105a193929190610725565b6040516020818303038152906040528051906020012060001c905090565b828054828255906000526020600020908101928215610638579160200282015b828111156106375782518260006101000a81548173ffffffffffffffffffffffffffffffffffffffff021916908373ffffffffffffffffffffffffffffffffffffffff160217905550916020019190600101906105df565b5b5090506106459190610649565b5090565b5b8082111561066257600081600090555060010161064a565b5090565b600081359050610675816109b1565b92915050565b6000602082840312156106915761069061099b565b5b600061069f84828501610666565b91505092915050565b6106b181610803565b82525050565b6106c0816107f1565b82525050565b60006106d1826107d5565b6106db81856107e0565b93506106eb81856020860161083f565b6106f4816109a0565b840191505092915050565b61070881610835565b82525050565b61071f61071a82610835565b6108a4565b82525050565b6000610731828661070e565b602082019150610741828561070e565b602082019150610751828461070e565b602082019150819050949350505050565b600060208201905061077760008301846106b7565b92915050565b600060208201905061079260008301846106a8565b92915050565b600060208201905081810360008301526107b281846106c6565b905092915050565b60006020820190506107cf60008301846106ff565b92915050565b600081519050919050565b600082825260208201905092915050565b60006107fc82610815565b9050919050565b600061080e82610815565b9050919050565b600073ffffffffffffffffffffffffffffffffffffffff82169050919050565b6000819050919050565b60005b8381101561085d578082015181840152602081019050610842565b8381111561086c576000848401525b50505050565b6000600282049050600182168061088a57607f821691505b6020821081141561089e5761089d61090e565b5b50919050565b6000819050919050565b60006108b982610835565b91506108c483610835565b9250826108d4576108d36108df565b5b828206905092915050565b7f4e487b7100000000000000000000000000000000000000000000000000000000600052601260045260246000fd5b7f4e487b7100000000000000000000000000000000000000000000000000000000600052602260045260246000fd5b7f4e487b7100000000000000000000000000000000000000000000000000000000600052603260045260246000fd5b7f4e487b7100000000000000000000000000000000000000000000000000000000600052604160045260246000fd5b600080fd5b6000601f19601f8301169050919050565b6109ba81610835565b81146109c557600080fd5b5056fea26469706673582212207750fb84337e3d5c63538f8b618c55d1a773c411ea1a976ddbf2310f31ed148164736f6c63430008070033",
					"opcodes": "PUSH1 0x80 PUSH1 0x40 MSTORE PUSH1 0x40 MLOAD DUP1 PUSH1 0x40 ADD PUSH1 0x40 MSTORE DUP1 PUSH1 0xB DUP2 MSTORE PUSH1 0x20 ADD PUSH32 0x48656C6C6F20576F726C64000000000000000000000000000000000000000000 DUP2 MSTORE POP PUSH1 0x2 SWAP1 DUP1 MLOAD SWAP1 PUSH1 0x20 ADD SWAP1 PUSH2 0x4F SWAP3 SWAP2 SWAP1 PUSH2 0xA3 JUMP JUMPDEST POP CALLVALUE DUP1 ISZERO PUSH2 0x5C JUMPI PUSH1 0x0 DUP1 REVERT JUMPDEST POP CALLER PUSH1 0x1 PUSH1 0x0 PUSH2 0x100 EXP DUP2 SLOAD DUP2 PUSH20 0xFFFFFFFFFFFFFFFFFFFFFFFFFFFFFFFFFFFFFFFF MUL NOT AND SWAP1 DUP4 PUSH20 0xFFFFFFFFFFFFFFFFFFFFFFFFFFFFFFFFFFFFFFFF AND MUL OR SWAP1 SSTORE POP PUSH2 0x1A7 JUMP JUMPDEST DUP3 DUP1 SLOAD PUSH2 0xAF SWAP1 PUSH2 0x146 JUMP JUMPDEST SWAP1 PUSH1 0x0 MSTORE PUSH1 0x20 PUSH1 0x0 KECCAK256 SWAP1 PUSH1 0x1F ADD PUSH1 0x20 SWAP1 DIV DUP2 ADD SWAP3 DUP3 PUSH2 0xD1 JUMPI PUSH1 0x0 DUP6 SSTORE PUSH2 0x118 JUMP JUMPDEST DUP3 PUSH1 0x1F LT PUSH2 0xEA JUMPI DUP1 MLOAD PUSH1 0xFF NOT AND DUP4 DUP1 ADD OR DUP6 SSTORE PUSH2 0x118 JUMP JUMPDEST DUP3 DUP1 ADD PUSH1 0x1 ADD DUP6 SSTORE DUP3 ISZERO PUSH2 0x118 JUMPI SWAP2 DUP3 ADD JUMPDEST DUP3 DUP2 GT ISZERO PUSH2 0x117 JUMPI DUP3 MLOAD DUP3 SSTORE SWAP2 PUSH1 0x20 ADD SWAP2 SWAP1 PUSH1 0x1 ADD SWAP1 PUSH2 0xFC JUMP JUMPDEST JUMPDEST POP SWAP1 POP PUSH2 0x125 SWAP2 SWAP1 PUSH2 0x129 JUMP JUMPDEST POP SWAP1 JUMP JUMPDEST JUMPDEST DUP1 DUP3 GT ISZERO PUSH2 0x142 JUMPI PUSH1 0x0 DUP2 PUSH1 0x0 SWAP1 SSTORE POP PUSH1 0x1 ADD PUSH2 0x12A JUMP JUMPDEST POP SWAP1 JUMP JUMPDEST PUSH1 0x0 PUSH1 0x2 DUP3 DIV SWAP1 POP PUSH1 0x1 DUP3 AND DUP1 PUSH2 0x15E JUMPI PUSH1 0x7F DUP3 AND SWAP2 POP JUMPDEST PUSH1 0x20 DUP3 LT DUP2 EQ ISZERO PUSH2 0x172 JUMPI PUSH2 0x171 PUSH2 0x178 JUMP JUMPDEST JUMPDEST POP SWAP2 SWAP1 POP JUMP JUMPDEST PUSH32 0x4E487B7100000000000000000000000000000000000000000000000000000000 PUSH1 0x0 MSTORE PUSH1 0x22 PUSH1 0x4 MSTORE PUSH1 0x24 PUSH1 0x0 REVERT JUMPDEST PUSH2 0x9FE DUP1 PUSH2 0x1B6 PUSH1 0x0 CODECOPY PUSH1 0x0 RETURN INVALID PUSH1 0x80 PUSH1 0x40 MSTORE PUSH1 0x4 CALLDATASIZE LT PUSH2 0x7F JUMPI PUSH1 0x0 CALLDATALOAD PUSH1 0xE0 SHR DUP1 PUSH4 0x67E404CE GT PUSH2 0x4E JUMPI DUP1 PUSH4 0x67E404CE EQ PUSH2 0x179 JUMPI DUP1 PUSH4 0xAA8C217C EQ PUSH2 0x1A4 JUMPI DUP1 PUSH4 0xCFAE3217 EQ PUSH2 0x1CF JUMPI DUP1 PUSH4 0xF71D96CB EQ PUSH2 0x1FA JUMPI PUSH2 0xFD JUMP JUMPDEST DUP1 PUSH4 0x12065FE0 EQ PUSH2 0x102 JUMPI DUP1 PUSH4 0x1B9265B8 EQ PUSH2 0x12D JUMPI DUP1 PUSH4 0x481C6A75 EQ PUSH2 0x137 JUMPI DUP1 PUSH4 0x5D495AEA EQ PUSH2 0x162 JUMPI PUSH2 0xFD JUMP JUMPDEST CALLDATASIZE PUSH2 0xFD JUMPI PUSH8 0x16345785D8A0000 CALLVALUE EQ PUSH2 0x98 JUMPI PUSH1 0x0 DUP1 REVERT JUMPDEST PUSH1 0x0 CALLER SWAP1 DUP1 PUSH1 0x1 DUP2 SLOAD ADD DUP1 DUP3 SSTORE DUP1 SWAP2 POP POP PUSH1 0x1 SWAP1 SUB SWAP1 PUSH1 0x0 MSTORE PUSH1 0x20 PUSH1 0x0 KECCAK256 ADD PUSH1 0x0 SWAP1 SWAP2 SWAP1 SWAP2 SWAP1 SWAP2 PUSH2 0x100 EXP DUP2 SLOAD DUP2 PUSH20 0xFFFFFFFFFFFFFFFFFFFFFFFFFFFFFFFFFFFFFFFF MUL NOT AND SWAP1 DUP4 PUSH20 0xFFFFFFFFFFFFFFFFFFFFFFFFFFFFFFFFFFFFFFFF AND MUL OR SWAP1 SSTORE POP STOP JUMPDEST PUSH1 0x0 DUP1 REVERT JUMPDEST CALLVALUE DUP1 ISZERO PUSH2 0x10E JUMPI PUSH1 0x0 DUP1 REVERT JUMPDEST POP PUSH2 0x117 PUSH2 0x237 JUMP JUMPDEST PUSH1 0x40 MLOAD PUSH2 0x124 SWAP2 SWAP1 PUSH2 0x7BA JUMP JUMPDEST PUSH1 0x40 MLOAD DUP1 SWAP2 SUB SWAP1 RETURN JUMPDEST PUSH2 0x135 PUSH2 0x299 JUMP JUMPDEST STOP JUMPDEST CALLVALUE DUP1 ISZERO PUSH2 0x143 JUMPI PUSH1 0x0 DUP1 REVERT JUMPDEST POP PUSH2 0x14C PUSH2 0x2E3 JUMP JUMPDEST PUSH1 0x40 MLOAD PUSH2 0x159 SWAP2 SWAP1 PUSH2 0x762 JUMP JUMPDEST PUSH1 0x40 MLOAD DUP1 SWAP2 SUB SWAP1 RETURN JUMPDEST CALLVALUE DUP1 ISZERO PUSH2 0x16E JUMPI PUSH1 0x0 DUP1 REVERT JUMPDEST POP PUSH2 0x177 PUSH2 0x309 JUMP JUMPDEST STOP JUMPDEST CALLVALUE DUP1 ISZERO PUSH2 0x185 JUMPI PUSH1 0x0 DUP1 REVERT JUMPDEST POP PUSH2 0x18E PUSH2 0x48C JUMP JUMPDEST PUSH1 0x40 MLOAD PUSH2 0x19B SWAP2 SWAP1 PUSH2 0x762 JUMP JUMPDEST PUSH1 0x40 MLOAD DUP1 SWAP2 SUB SWAP1 RETURN JUMPDEST CALLVALUE DUP1 ISZERO PUSH2 0x1B0 JUMPI PUSH1 0x0 DUP1 REVERT JUMPDEST POP PUSH2 0x1B9 PUSH2 0x4B2 JUMP JUMPDEST PUSH1 0x40 MLOAD PUSH2 0x1C6 SWAP2 SWAP1 PUSH2 0x7BA JUMP JUMPDEST PUSH1 0x40 MLOAD DUP1 SWAP2 SUB SWAP1 RETURN JUMPDEST CALLVALUE DUP1 ISZERO PUSH2 0x1DB JUMPI PUSH1 0x0 DUP1 REVERT JUMPDEST POP PUSH2 0x1E4 PUSH2 0x4B8 JUMP JUMPDEST PUSH1 0x40 MLOAD PUSH2 0x1F1 SWAP2 SWAP1 PUSH2 0x798 JUMP JUMPDEST PUSH1 0x40 MLOAD DUP1 SWAP2 SUB SWAP1 RETURN JUMPDEST CALLVALUE DUP1 ISZERO PUSH2 0x206 JUMPI PUSH1 0x0 DUP1 REVERT JUMPDEST POP PUSH2 0x221 PUSH1 0x4 DUP1 CALLDATASIZE SUB DUP2 ADD SWAP1 PUSH2 0x21C SWAP2 SWAP1 PUSH2 0x67B JUMP JUMPDEST PUSH2 0x546 JUMP JUMPDEST PUSH1 0x40 MLOAD PUSH2 0x22E SWAP2 SWAP1 PUSH2 0x77D JUMP JUMPDEST PUSH1 0x40 MLOAD DUP1 SWAP2 SUB SWAP1 RETURN JUMPDEST PUSH1 0x0 PUSH1 0x1 PUSH1 0x0 SWAP1 SLOAD SWAP1 PUSH2 0x100 EXP SWAP1 DIV PUSH20 0xFFFFFFFFFFFFFFFFFFFFFFFFFFFFFFFFFFFFFFFF AND PUSH20 0xFFFFFFFFFFFFFFFFFFFFFFFFFFFFFFFFFFFFFFFF AND CALLER PUSH20 0xFFFFFFFFFFFFFFFFFFFFFFFFFFFFFFFFFFFFFFFF AND EQ PUSH2 0x293 JUMPI PUSH1 0x0 DUP1 REVERT JUMPDEST SELFBALANCE SWAP1 POP SWAP1 JUMP JUMPDEST CALLER PUSH1 0x3 PUSH1 0x0 PUSH2 0x100 EXP DUP2 SLOAD DUP2 PUSH20 0xFFFFFFFFFFFFFFFFFFFFFFFFFFFFFFFFFFFFFFFF MUL NOT AND SWAP1 DUP4 PUSH20 0xFFFFFFFFFFFFFFFFFFFFFFFFFFFFFFFFFFFFFFFF AND MUL OR SWAP1 SSTORE POP CALLVALUE PUSH1 0x4 DUP2 SWAP1 SSTORE POP JUMP JUMPDEST PUSH1 0x1 PUSH1 0x0 SWAP1 SLOAD SWAP1 PUSH2 0x100 EXP SWAP1 DIV PUSH20 0xFFFFFFFFFFFFFFFFFFFFFFFFFFFFFFFFFFFFFFFF AND DUP2 JUMP JUMPDEST PUSH1 0x1 PUSH1 0x0 SWAP1 SLOAD SWAP1 PUSH2 0x100 EXP SWAP1 DIV PUSH20 0xFFFFFFFFFFFFFFFFFFFFFFFFFFFFFFFFFFFFFFFF AND PUSH20 0xFFFFFFFFFFFFFFFFFFFFFFFFFFFFFFFFFFFFFFFF AND CALLER PUSH20 0xFFFFFFFFFFFFFFFFFFFFFFFFFFFFFFFFFFFFFFFF AND EQ PUSH2 0x363 JUMPI PUSH1 0x0 DUP1 REVERT JUMPDEST PUSH1 0x3 PUSH1 0x0 DUP1 SLOAD SWAP1 POP LT ISZERO PUSH2 0x376 JUMPI PUSH1 0x0 DUP1 REVERT JUMPDEST PUSH1 0x0 PUSH2 0x380 PUSH2 0x585 JUMP JUMPDEST SWAP1 POP PUSH1 0x0 DUP1 PUSH1 0x0 DUP1 SLOAD SWAP1 POP DUP4 PUSH2 0x396 SWAP2 SWAP1 PUSH2 0x8AE JUMP JUMPDEST SWAP1 POP PUSH1 0x0 DUP2 DUP2 SLOAD DUP2 LT PUSH2 0x3AC JUMPI PUSH2 0x3AB PUSH2 0x93D JUMP JUMPDEST JUMPDEST SWAP1 PUSH1 0x0 MSTORE PUSH1 0x20 PUSH1 0x0 KECCAK256 ADD PUSH1 0x0 SWAP1 SLOAD SWAP1 PUSH2 0x100 EXP SWAP1 DIV PUSH20 0xFFFFFFFFFFFFFFFFFFFFFFFFFFFFFFFFFFFFFFFF AND SWAP2 POP DUP2 PUSH20 0xFFFFFFFFFFFFFFFFFFFFFFFFFFFFFFFFFFFFFFFF AND PUSH2 0x8FC PUSH2 0x3FB PUSH2 0x237 JUMP JUMPDEST SWAP1 DUP2 ISZERO MUL SWAP1 PUSH1 0x40 MLOAD PUSH1 0x0 PUSH1 0x40 MLOAD DUP1 DUP4 SUB DUP2 DUP6 DUP9 DUP9 CALL SWAP4 POP POP POP POP ISZERO DUP1 ISZERO PUSH2 0x426 JUMPI RETURNDATASIZE PUSH1 0x0 DUP1 RETURNDATACOPY RETURNDATASIZE PUSH1 0x0 REVERT JUMPDEST POP PUSH1 0x0 PUSH8 0xFFFFFFFFFFFFFFFF DUP2 GT ISZERO PUSH2 0x442 JUMPI PUSH2 0x441 PUSH2 0x96C JUMP JUMPDEST JUMPDEST PUSH1 0x40 MLOAD SWAP1 DUP1 DUP3 MSTORE DUP1 PUSH1 0x20 MUL PUSH1 0x20 ADD DUP3 ADD PUSH1 0x40 MSTORE DUP1 ISZERO PUSH2 0x470 JUMPI DUP2 PUSH1 0x20 ADD PUSH1 0x20 DUP3 MUL DUP1 CALLDATASIZE DUP4 CALLDATACOPY DUP1 DUP3 ADD SWAP2 POP POP SWAP1 POP JUMPDEST POP PUSH1 0x0 SWAP1 DUP1 MLOAD SWAP1 PUSH1 0x20 ADD SWAP1 PUSH2 0x486 SWAP3 SWAP2 SWAP1 PUSH2 0x5BF JUMP JUMPDEST POP POP POP POP JUMP JUMPDEST PUSH1 0x3 PUSH1 0x0 SWAP1 SLOAD SWAP1 PUSH2 0x100 EXP SWAP1 DIV PUSH20 0xFFFFFFFFFFFFFFFFFFFFFFFFFFFFFFFFFFFFFFFF AND DUP2 JUMP JUMPDEST PUSH1 0x4 SLOAD DUP2 JUMP JUMPDEST PUSH1 0x2 DUP1 SLOAD PUSH2 0x4C5 SWAP1 PUSH2 0x872 JUMP JUMPDEST DUP1 PUSH1 0x1F ADD PUSH1 0x20 DUP1 SWAP2 DIV MUL PUSH1 0x20 ADD PUSH1 0x40 MLOAD SWAP1 DUP2 ADD PUSH1 0x40 MSTORE DUP1 SWAP3 SWAP2 SWAP1 DUP2 DUP2 MSTORE PUSH1 0x20 ADD DUP3 DUP1 SLOAD PUSH2 0x4F1 SWAP1 PUSH2 0x872 JUMP JUMPDEST DUP1 ISZERO PUSH2 0x53E JUMPI DUP1 PUSH1 0x1F LT PUSH2 0x513 JUMPI PUSH2 0x100 DUP1 DUP4 SLOAD DIV MUL DUP4 MSTORE SWAP2 PUSH1 0x20 ADD SWAP2 PUSH2 0x53E JUMP JUMPDEST DUP3 ADD SWAP2 SWAP1 PUSH1 0x0 MSTORE PUSH1 0x20 PUSH1 0x0 KECCAK256 SWAP1 JUMPDEST DUP2 SLOAD DUP2 MSTORE SWAP1 PUSH1 0x1 ADD SWAP1 PUSH1 0x20 ADD DUP1 DUP4 GT PUSH2 0x521 JUMPI DUP3 SWAP1 SUB PUSH1 0x1F AND DUP3 ADD SWAP2 JUMPDEST POP POP POP POP POP DUP2 JUMP JUMPDEST PUSH1 0x0 DUP2 DUP2 SLOAD DUP2 LT PUSH2 0x556 JUMPI PUSH1 0x0 DUP1 REVERT JUMPDEST SWAP1 PUSH1 0x0 MSTORE PUSH1 0x20 PUSH1 0x0 KECCAK256 ADD PUSH1 0x0 SWAP2 POP SLOAD SWAP1 PUSH2 0x100 EXP SWAP1 DIV PUSH20 0xFFFFFFFFFFFFFFFFFFFFFFFFFFFFFFFFFFFFFFFF AND DUP2 JUMP JUMPDEST PUSH1 0x0 DIFFICULTY TIMESTAMP PUSH1 0x0 DUP1 SLOAD SWAP1 POP PUSH1 0x40 MLOAD PUSH1 0x20 ADD PUSH2 0x5A1 SWAP4 SWAP3 SWAP2 SWAP1 PUSH2 0x725 JUMP JUMPDEST PUSH1 0x40 MLOAD PUSH1 0x20 DUP2 DUP4 SUB SUB DUP2 MSTORE SWAP1 PUSH1 0x40 MSTORE DUP1 MLOAD SWAP1 PUSH1 0x20 ADD KECCAK256 PUSH1 0x0 SHR SWAP1 POP SWAP1 JUMP JUMPDEST DUP3 DUP1 SLOAD DUP3 DUP3 SSTORE SWAP1 PUSH1 0x0 MSTORE PUSH1 0x20 PUSH1 0x0 KECCAK256 SWAP1 DUP2 ADD SWAP3 DUP3 ISZERO PUSH2 0x638 JUMPI SWAP2 PUSH1 0x20 MUL DUP3 ADD JUMPDEST DUP3 DUP2 GT ISZERO PUSH2 0x637 JUMPI DUP3 MLOAD DUP3 PUSH1 0x0 PUSH2 0x100 EXP DUP2 SLOAD DUP2 PUSH20 0xFFFFFFFFFFFFFFFFFFFFFFFFFFFFFFFFFFFFFFFF MUL NOT AND SWAP1 DUP4 PUSH20 0xFFFFFFFFFFFFFFFFFFFFFFFFFFFFFFFFFFFFFFFF AND MUL OR SWAP1 SSTORE POP SWAP2 PUSH1 0x20 ADD SWAP2 SWAP1 PUSH1 0x1 ADD SWAP1 PUSH2 0x5DF JUMP JUMPDEST JUMPDEST POP SWAP1 POP PUSH2 0x645 SWAP2 SWAP1 PUSH2 0x649 JUMP JUMPDEST POP SWAP1 JUMP JUMPDEST JUMPDEST DUP1 DUP3 GT ISZERO PUSH2 0x662 JUMPI PUSH1 0x0 DUP2 PUSH1 0x0 SWAP1 SSTORE POP PUSH1 0x1 ADD PUSH2 0x64A JUMP JUMPDEST POP SWAP1 JUMP JUMPDEST PUSH1 0x0 DUP2 CALLDATALOAD SWAP1 POP PUSH2 0x675 DUP2 PUSH2 0x9B1 JUMP JUMPDEST SWAP3 SWAP2 POP POP JUMP JUMPDEST PUSH1 0x0 PUSH1 0x20 DUP3 DUP5 SUB SLT ISZERO PUSH2 0x691 JUMPI PUSH2 0x690 PUSH2 0x99B JUMP JUMPDEST JUMPDEST PUSH1 0x0 PUSH2 0x69F DUP5 DUP3 DUP6 ADD PUSH2 0x666 JUMP JUMPDEST SWAP2 POP POP SWAP3 SWAP2 POP POP JUMP JUMPDEST PUSH2 0x6B1 DUP2 PUSH2 0x803 JUMP JUMPDEST DUP3 MSTORE POP POP JUMP JUMPDEST PUSH2 0x6C0 DUP2 PUSH2 0x7F1 JUMP JUMPDEST DUP3 MSTORE POP POP JUMP JUMPDEST PUSH1 0x0 PUSH2 0x6D1 DUP3 PUSH2 0x7D5 JUMP JUMPDEST PUSH2 0x6DB DUP2 DUP6 PUSH2 0x7E0 JUMP JUMPDEST SWAP4 POP PUSH2 0x6EB DUP2 DUP6 PUSH1 0x20 DUP7 ADD PUSH2 0x83F JUMP JUMPDEST PUSH2 0x6F4 DUP2 PUSH2 0x9A0 JUMP JUMPDEST DUP5 ADD SWAP2 POP POP SWAP3 SWAP2 POP POP JUMP JUMPDEST PUSH2 0x708 DUP2 PUSH2 0x835 JUMP JUMPDEST DUP3 MSTORE POP POP JUMP JUMPDEST PUSH2 0x71F PUSH2 0x71A DUP3 PUSH2 0x835 JUMP JUMPDEST PUSH2 0x8A4 JUMP JUMPDEST DUP3 MSTORE POP POP JUMP JUMPDEST PUSH1 0x0 PUSH2 0x731 DUP3 DUP7 PUSH2 0x70E JUMP JUMPDEST PUSH1 0x20 DUP3 ADD SWAP2 POP PUSH2 0x741 DUP3 DUP6 PUSH2 0x70E JUMP JUMPDEST PUSH1 0x20 DUP3 ADD SWAP2 POP PUSH2 0x751 DUP3 DUP5 PUSH2 0x70E JUMP JUMPDEST PUSH1 0x20 DUP3 ADD SWAP2 POP DUP2 SWAP1 POP SWAP5 SWAP4 POP POP POP POP JUMP JUMPDEST PUSH1 0x0 PUSH1 0x20 DUP3 ADD SWAP1 POP PUSH2 0x777 PUSH1 0x0 DUP4 ADD DUP5 PUSH2 0x6B7 JUMP JUMPDEST SWAP3 SWAP2 POP POP JUMP JUMPDEST PUSH1 0x0 PUSH1 0x20 DUP3 ADD SWAP1 POP PUSH2 0x792 PUSH1 0x0 DUP4 ADD DUP5 PUSH2 0x6A8 JUMP JUMPDEST SWAP3 SWAP2 POP POP JUMP JUMPDEST PUSH1 0x0 PUSH1 0x20 DUP3 ADD SWAP1 POP DUP2 DUP2 SUB PUSH1 0x0 DUP4 ADD MSTORE PUSH2 0x7B2 DUP2 DUP5 PUSH2 0x6C6 JUMP JUMPDEST SWAP1 POP SWAP3 SWAP2 POP POP JUMP JUMPDEST PUSH1 0x0 PUSH1 0x20 DUP3 ADD SWAP1 POP PUSH2 0x7CF PUSH1 0x0 DUP4 ADD DUP5 PUSH2 0x6FF JUMP JUMPDEST SWAP3 SWAP2 POP POP JUMP JUMPDEST PUSH1 0x0 DUP2 MLOAD SWAP1 POP SWAP2 SWAP1 POP JUMP JUMPDEST PUSH1 0x0 DUP3 DUP3 MSTORE PUSH1 0x20 DUP3 ADD SWAP1 POP SWAP3 SWAP2 POP POP JUMP JUMPDEST PUSH1 0x0 PUSH2 0x7FC DUP3 PUSH2 0x815 JUMP JUMPDEST SWAP1 POP SWAP2 SWAP1 POP JUMP JUMPDEST PUSH1 0x0 PUSH2 0x80E DUP3 PUSH2 0x815 JUMP JUMPDEST SWAP1 POP SWAP2 SWAP1 POP JUMP JUMPDEST PUSH1 0x0 PUSH20 0xFFFFFFFFFFFFFFFFFFFFFFFFFFFFFFFFFFFFFFFF DUP3 AND SWAP1 POP SWAP2 SWAP1 POP JUMP JUMPDEST PUSH1 0x0 DUP2 SWAP1 POP SWAP2 SWAP1 POP JUMP JUMPDEST PUSH1 0x0 JUMPDEST DUP4 DUP2 LT ISZERO PUSH2 0x85D JUMPI DUP1 DUP3 ADD MLOAD DUP2 DUP5 ADD MSTORE PUSH1 0x20 DUP2 ADD SWAP1 POP PUSH2 0x842 JUMP JUMPDEST DUP4 DUP2 GT ISZERO PUSH2 0x86C JUMPI PUSH1 0x0 DUP5 DUP5 ADD MSTORE JUMPDEST POP POP POP POP JUMP JUMPDEST PUSH1 0x0 PUSH1 0x2 DUP3 DIV SWAP1 POP PUSH1 0x1 DUP3 AND DUP1 PUSH2 0x88A JUMPI PUSH1 0x7F DUP3 AND SWAP2 POP JUMPDEST PUSH1 0x20 DUP3 LT DUP2 EQ ISZERO PUSH2 0x89E JUMPI PUSH2 0x89D PUSH2 0x90E JUMP JUMPDEST JUMPDEST POP SWAP2 SWAP1 POP JUMP JUMPDEST PUSH1 0x0 DUP2 SWAP1 POP SWAP2 SWAP1 POP JUMP JUMPDEST PUSH1 0x0 PUSH2 0x8B9 DUP3 PUSH2 0x835 JUMP JUMPDEST SWAP2 POP PUSH2 0x8C4 DUP4 PUSH2 0x835 JUMP JUMPDEST SWAP3 POP DUP3 PUSH2 0x8D4 JUMPI PUSH2 0x8D3 PUSH2 0x8DF JUMP JUMPDEST JUMPDEST DUP3 DUP3 MOD SWAP1 POP SWAP3 SWAP2 POP POP JUMP JUMPDEST PUSH32 0x4E487B7100000000000000000000000000000000000000000000000000000000 PUSH1 0x0 MSTORE PUSH1 0x12 PUSH1 0x4 MSTORE PUSH1 0x24 PUSH1 0x0 REVERT JUMPDEST PUSH32 0x4E487B7100000000000000000000000000000000000000000000000000000000 PUSH1 0x0 MSTORE PUSH1 0x22 PUSH1 0x4 MSTORE PUSH1 0x24 PUSH1 0x0 REVERT JUMPDEST PUSH32 0x4E487B7100000000000000000000000000000000000000000000000000000000 PUSH1 0x0 MSTORE PUSH1 0x32 PUSH1 0x4 MSTORE PUSH1 0x24 PUSH1 0x0 REVERT JUMPDEST PUSH32 0x4E487B7100000000000000000000000000000000000000000000000000000000 PUSH1 0x0 MSTORE PUSH1 0x41 PUSH1 0x4 MSTORE PUSH1 0x24 PUSH1 0x0 REVERT JUMPDEST PUSH1 0x0 DUP1 REVERT JUMPDEST PUSH1 0x0 PUSH1 0x1F NOT PUSH1 0x1F DUP4 ADD AND SWAP1 POP SWAP2 SWAP1 POP JUMP JUMPDEST PUSH2 0x9BA DUP2 PUSH2 0x835 JUMP JUMPDEST DUP2 EQ PUSH2 0x9C5 JUMPI PUSH1 0x0 DUP1 REVERT JUMPDEST POP JUMP INVALID LOG2 PUSH5 0x6970667358 0x22 SLT KECCAK256 PUSH24 0x50FB84337E3D5C63538F8B618C55D1A773C411EA1A976DDB CALLCODE BALANCE 0xF BALANCE 0xED EQ DUP2 PUSH5 0x736F6C6343 STOP ADDMOD SMOD STOP CALLER "
				},
				"gasEstimates": {
					"creation": {
						"codeDepositCost": "511600",
						"executionCost": "infinite",
						"totalCost": "infinite"
					},
					"external": {
						"amount()": "2451",
						"getBalance()": "2510",
						"greet()": "infinite",
						"manager()": "2559",
						"pay()": "46522",
						"pickWinner()": "infinite",
						"players(uint256)": "5022",
						"sender()": "2514"
					},
					"internal": {
						"random()": "infinite"
					}
				},
				"methodIdentifiers": {
					"amount()": "aa8c217c",
					"getBalance()": "12065fe0",
					"greet()": "cfae3217",
					"manager()": "481c6a75",
					"pay()": "1b9265b8",
					"pickWinner()": "5d495aea",
					"players(uint256)": "f71d96cb",
					"sender()": "67e404ce"
				}
			},
			"storageLayout": {
				"storage": [
					{
						"astId": 4,
						"contract": "contracts/lottery.sol:Lottery",
						"label": "players",
						"offset": 0,
						"slot": "0",
						"type": "t_array(t_address_payable)dyn_storage"
					},
					{
						"astId": 6,
						"contract": "contracts/lottery.sol:Lottery",
						"label": "manager",
						"offset": 0,
						"slot": "1",
						"type": "t_address"
					},
					{
						"astId": 9,
						"contract": "contracts/lottery.sol:Lottery",
						"label": "greet",
						"offset": 0,
						"slot": "2",
						"type": "t_string_storage"
					},
					{
						"astId": 11,
						"contract": "contracts/lottery.sol:Lottery",
						"label": "sender",
						"offset": 0,
						"slot": "3",
						"type": "t_address"
					},
					{
						"astId": 13,
						"contract": "contracts/lottery.sol:Lottery",
						"label": "amount",
						"offset": 0,
						"slot": "4",
						"type": "t_uint256"
					}
				],
				"types": {
					"t_address": {
						"encoding": "inplace",
						"label": "address",
						"numberOfBytes": "20"
					},
					"t_address_payable": {
						"encoding": "inplace",
						"label": "address payable",
						"numberOfBytes": "20"
					},
					"t_array(t_address_payable)dyn_storage": {
						"base": "t_address_payable",
						"encoding": "dynamic_array",
						"label": "address payable[]",
						"numberOfBytes": "32"
					},
					"t_string_storage": {
						"encoding": "bytes",
						"label": "string",
						"numberOfBytes": "32"
					},
					"t_uint256": {
						"encoding": "inplace",
						"label": "uint256",
						"numberOfBytes": "32"
					}
				}
			},
			"userdoc": {
				"kind": "user",
				"methods": {},
				"version": 1
			}
		}
	}
}